:020000040800F2
:10000000002000109D6E0008E16D0008D73B00083D
:10001000E36D0008E56D0008E76D000800000000D2
:10002000000000000000000000000000E96D000872
:10003000EB6D000800000000613B0008ED6D00085A
:10004000316F0008356F0008396F00083D6F0008F8
:10005000416F0008456F0008212900084529000864
:10006000692900088D290008B1290008496F000896
:100070004D6F0008516F0008556F0008596F000858
:100080005D6F0008616F0008656F0008696F000808
:100090006D6F0008716F0008756F0008D5290008A2
:1000A000796F00087D6F0008816F0008856F000878
:1000B000896F00088D6F0008916F0008956F000828
:1000C000996F00089D6F0008A16F0008A56F0008D8
:1000D000A96F0008AD6F0008B16F0008B56F000888
:1000E0005D2A0008B96F0008BD6F0008C16F0008E5
:1000F000C56F0008C96F0008CD6F0008D16F0008F8
:10010000D56F0008D96F0008DD6F0008E16F0008A7
:10011000E56F0008E96F0008ED6F0008F16F000857
:10012000F56F0008F96F0008FD6F00080170000806
:1001300005700008097000080D70000811700008B3
:1001400015700008197000081D7000087F5A00081B
:100150002170000825700008297000082D70000823
:100160003170000835700008397000083D700008D3
:100170004170000845700008497000080000000048
:100180004D700008517000080EB418B504000898AE
:10019000012817D1A06B30F48030A063E068DFF84D
:1001A00068180840E060E06830F44010E0600F98A4
:1001B000012803D1E06850F48010E060200000F0D6
:1001C000E3FE12E0E06850F04000E060200000F044
:1001D000DBFE0C99002904D1A16B51F48031A1639D
:1001E00003E0A16B31F48031A1630699012907D1A5
:1001F000A16851F00601A160A16851F02001A16041
:10020000C0B212BC5DF810FBD2B2032A52D1DFF8A3
:10021000FC278A1ADFF8F8379A4201D20F214FE003
:10022000DFF8F0278A1ADFF8F0379A4201D20E2160
:1002300046E0DFF8E8278A1ADFF8E4379A4201D26D
:100240000D213DE0DFF8DC278A1ADFF8DC379A421F
:1002500001D20C2134E0DFF8D4278A1ADFF8D03736
:100260009A4201D20B212BE0DFF8C8278A1ADFF867
:10027000C8379A4201D20A2122E0DFF8C0278A1A41
:10028000DFF8BC379A4201D2092119E0DFF8E82CE7
:100290008A1ADFF8E83C9A4201D2082110E0DFF820
:1002A000E02C891ADFF8DC2C914201D2072107E00B
:1002B000062105E0D2B2002A01D1092100E009217E
:1002C000C26832F47052C260C268890211F470517F
:1002D0001143C16000207047816851F001018160C5
:1002E00000207047816849084900816000207047FC
:1002F00080B5C26832F0C042C260C9B2012908D1DB
:10030000C16851F00051C160322000F090FE002021
:1003100002BDC9B2002904D1C16851F08041C16059
:10032000F2E70120F4E70EB478B5040000252600BA
:10033000002005E0002104EB8002C2F80411401CFB
:100340000F28F7D30F9800280CD1A06B50F40010A1
:10035000A063A06B30F40020A063A06B30F4802079
:10036000A06307E0206830F400102060A06B50F418
:100370000020A063002016F56061086016F500609B
:10038000006816F5006108600A9801280CD10798EA
:10039000002804D10021200000F0E7F808E0012146
:1003A000200000F0E2F803E00321200000F0DDF877
:1003B0001021200000F0B9F8002800D0012520000D
:1003C00000F0C4F8002800D00125002016F50061D7
:1003D0000861002016F500614861002016F50061F3
:1003E000C861002013E0002116EB401212F51062E4
:1003F000116016EB401111F5106100220A6116EB35
:10040000401111F510614FF67F328A60401C05994A
:10041000884218D216EB401111F5106109680029C5
:10042000E1D5002807D15FF0006116EB401212F50C
:1004300010621160DDE75FF0904116EB401212F59B
:1004400010621160D5E7002013E0002116EB401286
:1004500012F53062116016EB401111F53061002287
:100460000A6116EB401111F530614FF67F328A6058
:10047000401C0599884218D216EB401111F53061E5
:1004800009680029E1D5002807D15FF0006116EB6B
:10049000401212F530621160DDE75FF0904116EB1B
:1004A000401212F530621160D5E716F50060006960
:1004B00030F4807016F500610861089801280ED1AB
:1004C000DFF8F80A16F50061086316F50060006BA6
:1004D00040F4803050F0030016F5006108630020FE
:1004E000A0617FF0804060610898002803D1A06976
:1004F00050F01000A061A069DFF8C41A0843A061A1
:100500000B98002803D0A06950F00800A0610F9854
:10051000012805D1A06940F0804050F00400A0619E
:100520002800C0B272BC5DF810FB0022890151F0B6
:1005300020010161521CDFF88C1A8A4201D303208A
:1005400003E001698906F5D40020704700211022DC
:100550000261491CDFF86C2A914201D3032003E0B9
:100560000269D206F5D40020704710F500621268C7
:10057000C9B2114310F5006001600020704710F50A
:100580000060806810F00600002801D1002006E01D
:10059000022801D0062801D1032000E00020C0B2CB
:1005A000704730B40A784B78012B2BD110F50063DB
:1005B000DB6901240D7815F00F05AC40A4B223438C
:1005C00010F50064E36110EB421313F510631B6830
:1005D0001B0440D410EB421313F510631B688C68A6
:1005E0006405640DC97854EA814151EA825141F0B1
:1005F000805151F40041194310EB421010F5106086
:10060000016028E010F50063DB6901240D7815F026
:100610000F05AC4053EA044310F50064E36110EBAE
:10062000421313F530631B681B0414D410EB421300
:1006300013F530631B688C686405640DC97854EA4F
:10064000814141F0805151F40041194310EB4210B7
:1006500010F530600160002030BC704730B40A787B
:100660004B78012B29D110F50063DB6B01240D7849
:1006700015F00F05AC40A4B2A34310F50064E3638A
:1006800010F50063DB690124097811F00F0114FAF9
:1006900001F189B233EA010110F50063D96110EB71
:1006A000421111F510610968DFF81C39194010EB8F
:1006B000421010F51060016027E010F50063DB6B5D
:1006C00001240D7815F00F05AC4033EA044310F512
:1006D0000064E36310F50063DB690124097811F01D
:1006E0000F0114FA01F133EA014110F50063D961F9
:1006F00010EB421111F530610968DFF8D03819406C
:1007000010EB421010F530600160002030BC7047E3
:10071000F8B503000C784D78012D40F0DB804D6971
:10072000002D24D113EB441515F5106513EB441679
:1007300016F5106636696FF3DC462E6113EB44152F
:1007400015F5106513EB441616F51066366956F468
:1007500000262E6113EB441515F5106513EB4416B6
:1007600016F510663669F60CF6042E6159E013EBA7
:10077000441515F5106513EB441616F51066366929
:10078000F60CF6042E6113EB441515F5106513EB0A
:10079000441616F5106636696FF3DC462E6113EBCE
:1007A000441515F5106513EB441616F510663669F9
:1007B0004F69D1F808C01CEB07077F1ED1F808C0AD
:1007C000B7FBFCF7DFF808C81CEAC7473E432E61B9
:1007D00013EB441515F5106513EB441616F510666A
:1007E00036694F697F037F0B3E432E61CD78012D23
:1007F00017D113EB441515F5106513EB441616F5D8
:100800001066366936F0C0462E6113EB441515F5B7
:10081000106513EB441616F51066366956F000564F
:100820002E61D2B2012A09D10D69002D18D013EB27
:10083000441515F510650E696E6111E0CD78012D36
:100840000ED04D69002D0BD013F500656D6B0126A0
:100850000F7817F00F07BE40354313F50066756338
:10086000CD78012D1DD113F50065AD68ED050CD4D3
:1008700013EB441515F510652D6855F0005513EB75
:10088000441616F5106635600BE013EB441515F5AC
:1008900010652D6855F0805513EB441616F510665B
:1008A000356013EB441515F510652D6855F00445BA
:1008B00013EB441313F510631D60CB78012B40F04C
:1008C000A080D2B200924B699BB20A78C96800F04E
:1008D0009BF996E013EB441010F5306013EB4415D0
:1008E00015F530652D69ED0CED04056113EB441031
:1008F00010F5306013EB441515F530652D696FF375
:10090000DC450561486900281AD113EB441010F545
:10091000306013EB441515F530652D698E6876034C
:10092000760B3543056113EB441010F5306013EB83
:10093000441515F530652D6955F40025056127E04E
:1009400048698D682818401E8D68B0FBF5F013EBE0
:10095000441515F5306513EB441616F53066366907
:1009600080B2DFF86C7617EAC0473E432E6113EB86
:10097000441515F5306513EB441616F530663669E7
:100980008F6880B200FB07F04003400B30432861C2
:10099000D2B2012A08D1C868002805D013EB441050
:1009A00010F53060CA684261C87801281DD113F57E
:1009B00000608068C0050CD413EB441010F5306063
:1009C000006850F0005013EB441111F530610860DD
:1009D0000BE013EB441010F53060006850F08050CD
:1009E00013EB441111F53061086013EB441010F55E
:1009F0003060006850F0044013EB441111F5306191
:100A000008600020F2BD0000BFFFBDFFC0ACD800F1
:100A100000350C00C0E1E40040420F000024F40067
:100A2000804F12008073060120D61300A0491A01DE
:100A300060E31600002D310140771B0040A44C01FB
:100A4000C091210070B40B784C78012C40F08A8062
:100A50004C69002C24D110EB431414F5106410EBF6
:100A6000431515F510652D696FF3DC45256110EB15
:100A7000431414F5106410EB431515F510652D693A
:100A800055F40025256110EB431414F5106410EBA8
:100A9000431515F510652D69ED0CED04256137E062
:100AA00010EB431414F5106410EB431515F51065A5
:100AB0002D69ED0CED04256110EB431414F5106461
:100AC00010EB431515F510652D696FF3DC452561B5
:100AD0008C684D69AC4201D28C684C6110EB4314B8
:100AE00014F5106410EB431515F510652D6955F4D8
:100AF0000025256110EB431414F5106410EB431529
:100B000015F510652D694E697603760B3543256121
:100B1000D2B2012A09D10A69002A16D010EB431279
:100B200012F51062096951610FE04A69002A0CD080
:100B300010F50062526B0124097811F00F0114FACC
:100B400001F1114310F50062516310EB431111F5EF
:100B50001061096851F0044110EB431010F510606A
:100B600001604EE010EB431414F5306410EB4315B4
:100B700015F530652D69ED0CED04256110EB43147E
:100B800014F5306410EB431515F530652D696FF3DE
:100B9000DC4525614C69002C01D08C684C6110EB60
:100BA000431414F5306410EB431515F530652D69C9
:100BB00055F40025256110EB431414F5306410EB57
:100BC000431515F530652D698E687603760B354330
:100BD0002561D2B2012A08D1CA68002A05D010EBDB
:100BE000431212F53062C968516110EB431111F5DF
:100BF0003061096851F0044110EB431010F530608A
:100C00000160002070BC704770B4039C002C11D1AF
:100C10009BB2DB1C9B0800240AE00D68D2B24FF4A3
:100C2000805606FB020616F580563560091D641CC9
:100C30009C42F2D3002070BC704710B492B2D21C18
:100C40009308002205E010F5805424680C60091D0B
:100C5000521C9A42F7D3080010BC70470A784978B2
:100C6000012921D110EB421111F510610968002909
:100C70000DD4002A0BD010EB421111F51061096858
:100C800031F0804110EB421313F51063196010EB43
:100C9000421111F51061096851F4001110EB421076
:100CA00010F51060016020E010EB421111F5306189
:100CB000096800290DD4002A0BD010EB421111F560
:100CC0003061096831F0804110EB421313F5306355
:100CD000196010EB421111F53061096851F40011EF
:100CE00010EB421010F5306001600020704710B426
:100CF0000A784B78012B1ED110EB421313F51063C9
:100D00001B6833F4001310EB421414F510642360D5
:100D1000CB78032B02D0C97802292AD110EB4211DB
:100D200011F51061096851F0805110EB421010F577
:100D3000106001601DE010EB421313F530631B6877
:100D400033F4001310EB421414F530642360CB78B5
:100D5000032B02D0C97802290BD110EB421111F5F7
:100D60003061096851F0805110EB421010F530608D
:100D70000160002010BC704710B504002000002165
:100D80000EE010EB411212F510624FF67F339360C4
:100D900010EB411212F530624FF67F339360491C1D
:100DA0000F29EED3002110F500621161002110F52A
:100DB00000625161002110F50060C1612000FFF761
:100DC000C5FBC0B2002801D0C0B209E0102120004C
:100DD000FFF7ABFBC0B2002801D0C0B200E0C0B248
:100DE00010BD10F50062126832F4FE6210F5006367
:100DF0001A6010F500621268C9B2090111F4FE61AF
:100E0000114310F5006001600020704780B510F5B7
:100E1000006149687FF00202114010F500604160F6
:100E2000032000F004F9002002BD80B510F5006138
:100E3000496851F0020110F500604160032000F0A4
:100E4000F6F8002002BD4169806901400800704742
:100E500010F50061896910F50060C0690140080C57
:100E6000704710F50061896910F50060C0690140A4
:100E700088B27047C9B210EB411111F53061896831
:100E800010F50060406901400800704710B410F58B
:100E90000062126910F500635B6B11F00F04E34010
:100EA000DB0113F080031A43C9B210EB411010F5B7
:100EB00010608068104010BC7047406910F001005D
:100EC000704710F510610968C90AC90210F510626F
:100ED000116010F50061896811F00601042907D13D
:100EE00010F51061096851F0030110F510621160EE
:100EF00010F50061496851F4807110F5006041609F
:100F00000020704710B4036CDFF8C840A34206D33A
:100F100010F530631B68002B01D500202AE0002368
:100F200010F53064236110F530631B6953F400231E
:100F300010F53064236110F530631B6953F018031A
:100F400010F53064236110F530631B6953F0C04322
:100F500010F530642361C9B201290AD110F530615E
:100F60004A6110F53061096851F0802110F5306058
:100F70000160002010BC704700366E0120753800FB
:100F800020ABA601E09C41000021491C0D4A914282
:100F900001D3032011E00269002AF6D5002102697D
:100FA00052F001020261491C064A914201D303201A
:100FB00003E00269D207F6D40020704700018000E8
:100FC00000383C80410D0300007833EC0078F3EFEB
:100FD0000000F81F0B30544F10B504004FF47A7026
:100FE0001B490978B0FBF1F01A490968B1FBF0F030
:100FF00000F0CDF8002801D001200CE0102C09D21F
:10100000002221005FF0FF3000F0A6F812480460D3
:10101000002000E0012010BD104800680C4909784C
:1010200040180E49086070470C480068704738B592
:101030000400FFF7F9FF050014F1010F02D0044886
:1010400000782418FFF7F0FF401BA042FAD331BD0F
:10105000E0010020D8010020D4010020548E00209F
:1010600010F007014C4800684FF6FF0210404B4A51
:1010700052EA012108434849086070474648006821
:10108000C0F30220704740B2002808D4012110F0BC
:101090001F029140424A40B2400942F82010704776
:1010A00040B200280CD4012110F01F0291403D4AAB
:1010B00040B2400942F82010BFF34F8FBFF36F8F4B
:1010C000704740B2002804D40901374A40B2115495
:1010D00007E00901354A40B210F00F00104400F853
:1010E000041C704710B410F00700D0F10703052B63
:1010F00001D3042301E0D0F10703041D072C01D222
:10110000002000E0C01E012414FA03F35B1E194006
:101110008140012313FA00F0401E1040084310BC28
:10112000704780B5411EB1F1807F01D301200EE0F0
:10113000401E1F4908600F215FF0FF30FFF7C1FF1D
:1011400000201C49086007201B490860002002BDE0
:1011500080B5FFF785FF01BD70B504000D001600D6
:101160000020FFF78BFF32002900FFF7BBFF0100D3
:10117000200040B2FFF7A5FF70BD80B540B2FFF779
:1011800082FF01BD80B540B2FFF78AFF01BD80B587
:10119000FFF7C7FF02BD00000CED00E00000FA05FC
:1011A00000E100E080E100E000E400E018ED00E094
:1011B00014E000E018E000E010E000E010B58AB0B4
:1011C0000400002C01D10120B0E094F8BD030028F8
:1011D00005D1002084F8BC03200000F027FE032086
:1011E00084F8BD032068FFF77DF8211D83B06846B1
:1011F000342200F0A1FF0EBC2068FEF7C5FF0028D6
:1012000004D0022084F8BD0301208FE00021206873
:10121000FFF76EF8002034E00121C0B21C2202FB6F
:1012200000F2224482F83D10C0B21C2101FB00F103
:10123000214481F83C00C0B2C0B21C2101FB00F186
:101240002144A1F842000021C0B21C2202FB00F29E
:10125000224482F83F100021C0B21C2202FB00F29F
:10126000224451640021C0B21C2202FB00F222443D
:1012700091640021C0B21C2202FB00F222441165DD
:10128000401CC0B261688842C6D300202FE0002114
:10129000C0B21C2202FB00F2224482F8FD11C0B24F
:1012A0001C2101FB00F1214481F8FC010021C0B2A6
:1012B0001C2202FB00F2224482F8FF110021C0B27E
:1012C0001C2202FB00F22244C2F804120021C0B228
:1012D0001C2202FB00F22244C2F808120021C0B214
:1012E0001C2202FB00F22244C2F81012401CC0B2C1
:1012F00061688842CBD3211D83B06846342200F058
:101300001BFF0EBC2068FFF70EF8002804D0022057
:1013100084F8BD03012009E0002084F83800012092
:1013200084F8BD032068FFF780FD00200AB010BDDF
:1013300010B50400002C01D101200CE0032084F83A
:10134000BD03200000F029F8200000F0A3FD0020DC
:1013500084F8BD03002010BD10B50400206894F887
:10136000BC13012901D1022016E0012184F8BC132D
:10137000A16A012906D1A169012903D0816B51F429
:10138000803181632068FFF741FD2068FEF7A4FFEC
:10139000002084F8BC03002010BD10B5040094F8B0
:1013A000BC03012801D1022016E0012084F8BC030F
:1013B0002068FEF797FF2068FFF7DEFC002804D0C6
:1013C000002084F8BC03012006E02068FFF72DFD13
:1013D000002084F8BC03002010BD2DE9F843040070
:1013E00025682E0000272068FFF767FD002840F0E1
:1013F0006B822068FFF727FD002800F065822068D7
:10140000FFF721FD800705D52068406910F0020034
:10141000216848612068FFF716FD000355D50027B5
:101420002068FFF715FD80464CE05FEAC87046D59E
:101430003900C9B22068FFF71DFD81465FEAC97017
:1014400009D516EB471010F5306001218160390095
:10145000200000F008FC5FEA097009D5390020007F
:1014600000F0A8FC16EB471010F5306008218160F1
:101470005FEAC96005D516EB471010F53060102102
:1014800081605FEA896010D52069012807D14FF497
:10149000717004EB000201212068FFF733FD16EBA9
:1014A000471010F53060202181605FEA894006D541
:1014B00016EB471010F530604FF4005181607F1C2F
:1014C0005FEA5808B8F1000FAFD12068FFF7BBFC06
:1014D000400340F181802068FFF7C3FC804600276D
:1014E00077E05FEAC87071D53900C9B22068FFF7AC
:1014F000CDFC81465FEAC9703DD5012017F00F0190
:10150000884016F50061496B31EA000016F500616C
:10151000486316EB471010F51060012181602069C7
:1015200001280FD11C2000FB07F02044806C1C21F7
:1015300001FB07F12144496C08441C2101FB07F120
:10154000214488643900C9B2200000F0EDFC206914
:10155000012810D1002F0ED11C2000FB07F02044E1
:10156000006D002807D14FF4717004EB00020121D7
:101570002068FFF7C7FC5FEA097005D516EB471036
:1015800010F51060082181605FEAC96005D516EB8F
:10159000471010F51060102181605FEA496005D5A1
:1015A00016EB471010F51060402181605FEA8970EA
:1015B00005D516EB471010F51060022181605FEA37
:1015C000096003D53900200000F0D9FA7F1C5FEADA
:1015D0005808B8F1000F84D12068FFF734FC0028C8
:1015E0001CD516F5006040684008400016F5006103
:1015F000486094F8F403012807D1002084F8F4032C
:101600000021200000F0F4FD02E0200000F0BDFC0D
:101610002068406910F00040216848612068FFF7A9
:1016200012FC00050DD516F500608068C00702D5D4
:10163000200000F0A4FC2068406910F400602168DC
:1016400048612068FFF7FFFBC00440F17F8016F57A
:10165000006040684008400016F5006148601021B5
:101660002068FEF762FF002026E016EB401111F51E
:1016700010614FF67F328A6016EB401111F5106150
:10168000096831F4001116EB401212F51062116076
:1016900016EB401111F530614FF67F328A6016EB80
:1016A000401111F53061096831F4001116EB401258
:1016B00012F530621160401C61688842D5D316F57E
:1016C0000060C06950F0011016F50061C861206B20
:1016D000002812D016F50060D0F8840050F00B00FE
:1016E00016F50061C1F8840016F50060406C50F0FA
:1016F0000B0016F50061486411E016F500604069C2
:1017000040F4005050F02B0016F50061486116F5CA
:101710000060006950F00B0016F50061086116F5D5
:101720000060006830F4FE6016F5006108604FF458
:10173000717004EB00022169C9B22068FFF7E2FB77
:101740002068406910F48050216848612068FFF7E4
:101750007AFB80041DD52068FFF7B3FB2068FEF7F5
:101760000EFF002802D10020E06001E00320E060CD
:1017700001F02AF80100E268D2B22068FEF744FDC9
:10178000200000F0E4FB2068406910F4005021685C
:1017900048612068FFF757FBC00648D5206880697C
:1017A0007FF010010840216888612E6A16F00F0052
:1017B0001C21484320444FF4FE7100EB0108C6F39E
:1017C000434002281AD147F6F070064229D0C6F3EA
:1017D0000A1292B2D8F80C102800FFF72EFAD8F8A7
:1017E0000C00C6F30A110844C8F80C00D8F8180019
:1017F000C6F30A110818C8F8180012E0C6F34340EF
:1018000006280ED108224FF4717004EB0001280065
:10181000FFF713FAD8F81800C6F30A110818C8F829
:1018200018002068806950F01000216888612068E5
:10183000FFF709FB000708D5200000F082FB2068B5
:10184000406910F00800216848612068FFF7FBFA42
:10185000C0020AD53900C9B2200000F0A3FB2068FD
:10186000406910F48010216848612068FFF7EBFAA6
:1018700080020AD53900C9B2200000F08CFB206834
:10188000406910F40010216848612068FFF7DBFA16
:10189000400008D5200000F08CFB2068406910F063
:1018A0008040216848612068FFF7CDFA40070BD5DA
:1018B00020684668700702D5200000F080FB206891
:1018C0004068304321684860BDE8F18310B50400EA
:1018D00094F8BC03012801D102200CE0012084F817
:1018E000BC0384F83810C9B22068FFF77AFA0020E8
:1018F00084F8BC03002010BD70B504000025C9B2F7
:10190000080609D5C9B211F00F001C267043204407
:101910003C30012646700AE0C9B211F00F001C26C7
:10192000704320444FF4FE7630440026467011F098
:101930000F01017092B28260C3704178002901D01A
:101940000178C180DBB2022B01D10021017194F832
:10195000BC13012901D102200BE0012184F8BC1342
:1019600001002068FEF71DFE002084F8BC0328005B
:10197000C0B270BD10B50400C9B2080609D5C9B21D
:1019800011F00F001C22504320443C3001224270D1
:101990000AE0C9B211F00F001C22504320444FF45A
:1019A000FE7210440022427011F00F01017094F891
:1019B000BC13012901D102200AE0012184F8BC13E3
:1019C00001002068FEF74AFE002084F8BC030020D6
:1019D00010BD38B5C9B211F00F041C256C43044486
:1019E0004FF4FE752C44E26063610023A361002381
:1019F000637011F00F0323700369012B00D1226182
:101A00000F22114206D10269D2B221000068FFF70D
:101A100019F805E00269D2B221000068FEF778FEED
:101A2000002032BDC9B211F00F011C2251430844FD
:101A3000D0F81402704738B50C00E4B214F00F016E
:101A40001C25694301443C31CA604B6100238B6112
:101A500001234B7014F00F030B700369012B00D1AD
:101A60000A610F22144205D10269D2B20068FEF762
:101A7000E9FF04E00269D2B20068FEF749FE0020E7
:101A800032BD38B504000D006068EDB215F00F01ED
:101A9000884201D2012038E0EDB228060AD5EDB225
:101AA00015F00F001C214843204410F13C01012097
:101AB000487009E0EDB21C2000FB05F020444FF413
:101AC000FE710144002048700120887015F00F005D
:101AD000087094F8BC03012801D1022015E0012010
:101AE00084F8BC032068FFF7B9F80F20054208D13D
:101AF0004FF4717004EB00022169C9B22068FFF74E
:101B000001FA002084F8BC03002032BD10B50400A7
:101B10006068C9B211F00F02904201D201202DE09D
:101B2000C9B2080609D5C9B211F00F001C225043F2
:101B300020443C30012242700AE0C9B211F00F008B
:101B40001C22504320444FF4FE7210440022427085
:101B50000022827011F00F01017094F8BC1301296A
:101B600001D102200AE0012184F8BC1301002068A1
:101B7000FFF7BDF8002084F8BC03002010BD2DE95C
:101B8000F04782B005000E002F683C001C2000FBCF
:101B900006F0284410F13C08D8F81400D8F81810C2
:101BA000884201D201205CE0D8F81400D8F818105F
:101BB000B0EB0109D8F80800484501D2D8F80890E0
:101BC00019F103005FEA900A26E0D8F81400D8F86B
:101BD0001810B0EB0109D8F80800484501D2D8F830
:101BE000089019F103005FEA900A2869C0B20090DA
:101BF0004B469BB23200D2B2D8F80C103800FFF737
:101C000003F8D8F80C004844C8F80C00D8F81800BD
:101C100019EB0000C8F8180014EB461010F510601E
:101C2000806980B2504509D3D8F81800D8F814104C
:101C3000884203D2D8F814000028C6D1D8F818007A
:101C4000D8F8141088420BD3012016F00F018840F9
:101C500014F50061496B31EA000014F50061486336
:101C60000020BDE8F68770B504000D002668306CD2
:101C700016EB451111F5306189682269012A77D187
:101C80000A071DD5674A904208D3080406D516EB0B
:101C9000451010F530604FF400418160200000F0E5
:101CA0002CF94FF4717004EB000201212068FFF75A
:101CB00029F916EB451010F530600821816077E0B6
:101CC0008A0606D516EB451010F53060202181609C
:101CD0006EE011F0280F6BD1524A904209D30804EC
:101CE00007D516EB451010F530604FF400418160C8
:101CF0005EE01C2000FB05F02044D0F8040216EB47
:101D0000451111F5306109694903490B401A1C213D
:101D100001FB05F12144C1F814021C2000FB05F071
:101D20002044D0F808021C2101FB05F12144D1F820
:101D3000041208441C2101FB05F12144C1F80802EA
:101D40002900C9B2200000F0E1F8002D30D11C209C
:101D500000FB05F02044D0F81002002828D14FF4F1
:101D6000717004EB000201212068FFF7CBF81FE03F
:101D70002D4A904217D1080407D516EB451010F5EF
:101D800030604FF40041816012E0880605D516EB03
:101D9000451010F53060202181602900C9B2200073
:101DA00000F0B4F804E02900C9B2200000F0AEF859
:101DB000002070BD38B504002068056C10EB41129E
:101DC00012F5306292682369012B0CD1154B9D42AC
:101DD00015D3120413D510EB411010F530604FF4F9
:101DE000004181600BE0104B9D4208D1120406D5E2
:101DF00010EB411010F530604FF40041816020007D
:101E000000F07BF8074885420AD32069012807D1F2
:101E10004FF4717004EB000201212068FFF772F8A3
:101E2000002032BD0B30544F0A31544F80B5012190
:101E30004FF4867000F066FE0A220A214FF4867085
:101E400000F05DFF012140F20B1000F05BFE0A2262
:101E50000A2140F20B1000F052FFB148006850F028
:101E60008000AF49086000200090AE48006850F440
:101E70008040AC490860AB48006810F48040009096
:101E80000098002201214320FFF766F94320FFF765
:101E900074F901BD80B5A448006850F08000A249E3
:101EA0000860A14800687FF0800108409E490860F2
:101EB0004320FFF767F99A4800687FF080010840E7
:101EC000974908609748006830F480409549086059
:101ED00009214FF4867000F075FE00214FF48670E2
:101EE00000F010FE092140F20B1000F06BFE002103
:101EF00040F20B1000F006FE01BD80B54FF4717189
:101F00000144D0F8040401F082F801BD80B5C9B2E3
:101F10001C2202FB01F20244D2F80822C9B2D0F816
:101F2000040401F0ADF801BD80B5C9B21C2202FB6A
:101F300001F20244926CC9B2D0F8040401F0F4F842
:101F400001BD80B5D0F8040401F0B1F901BD10B5B0
:101F500004000121E068002802D0022802D003E03A
:101F6000002102E0012100E00121C9B2D4F80404FB
:101F700001F08BF9D4F8040401F057F910BD80B5D5
:101F8000D0F8040401F084F901BD80B5D0F8040450
:101F900001F087F901BD80B5C9B2D0F8040401F0A1
:101FA00098F901BD80B5C9B2D0F8040401F08FF9E9
:101FB00001BD80B5D0F8040401F08DF901BD80B5F4
:101FC000D0F8040401F089F901BD80B55FF0A041AB
:101FD000564A11600421554A51600021534A116349
:101FE0000021524A11610021504A116202214F4AD8
:101FF000916100214D4AD16102214C4AD1600021FA
:102000004A4AD1624949C1F804044849C0F89812C3
:102010004648FFF7D3F88021444800F0E4F8402216
:102020000021424800F0B3F8802201213F4800F02F
:10203000AEF8002002BD80B5D0F89802FFF778F91D
:10204000002002BD80B5D0F89802FFF785F9002086
:1020500002BD80B5D0F89802FFF79FF9002002BDBD
:1020600010B51C001300DBB2220092B2C9B2D0F846
:102070009802FFF741FC002010BD80B5C9B2D0F82E
:102080009802FFF777FC002002BD80B5C9B2D0F8F6
:102090009802FFF7F6FC002002BD80B5C9B2D0F867
:1020A0009802FFF733FD002002BDD0F89802C9B2B4
:1020B0000A0608D5C9B211F00F011C225143084489
:1020C00090F83E0007E0C9B211F00F011C22514305
:1020D000084490F8FE01704780B5C9B2D0F8980264
:1020E000FFF7F4FB002002BD80B59BB2C9B2D0F867
:1020F0009802FFF7A0FC002002BD80B59BB2C9B2D8
:10210000D0F89802FFF765FC002002BD80B5C9B287
:10211000D0F89802FFF786FC02BD05487047000022
:10212000343802404438024014380240347A0020E7
:10213000D880002070470000103A07D330B4B1E8CF
:102140003810103AA0E83810F9D230BC530724BF39
:10215000B1E80810A0E8081044BF51F8043B40F86B
:10216000043BD20724BF31F8022B20F8022B44BFD6
:102170000B7803707047083A07D3B1E80810083AA3
:1021800040F8043B40F804CBF7D25307E4E730B4FF
:1021900003685C6AC9B2002905D192B254EA0241CF
:1021A000006881621CE003689B6A14EB13440023FF
:1021B00008E00568DBB205EB8305D5F8045114EBA4
:1021C00015445B1CDBB2C9B24D1EAB42F1D30068B3
:1021D000C9B200EB810092B254EA0241C0F800118A
:1021E000002030BC704789B200684162002070470F
:1021F0007047000070B582B00400002C01D10120AE
:10220000F3E12078C0076FD5DFF8C405006810F04F
:102210000C0004280BD0DFF8B805006810F00C00A3
:1022200008280ED1DFF8AC050068400209D5DFF8B8
:10223000A8050068800357D56068002854D10120A4
:10224000D3E16068B0F5803F08D1DFF88C05006805
:1022500050F48030DFF88015086024E06068B0F545
:10226000A02F10D1DFF87005006850F48020DFF84F
:1022700068150860DFF86005006850F48030DFF80A
:10228000581508600FE0DFF85005006830F4803022
:10229000DFF844150860DFF84005006830F480205E
:1022A000DFF834150860606800280ED0FEF7BCFE29
:1022B0000500DFF824050068800315D4FEF7B4FE9E
:1022C000401B6528F5D303208FE1FEF7ADFE050026
:1022D000DFF804050068800306D5FEF7A5FE401B65
:1022E0006528F5D3032080E12078800727D5DFF823
:1022F000E004006810F00C0F0BD0DFF8D404006885
:1023000010F00C00082833D1DFF8C8040068400240
:102310002ED4DFF8C4040068800704D5E0680128E3
:1023200001D0012061E1DFF8B00400687FF0F8011E
:102330000840216950EAC100DFF89C140860207849
:1023400000075ED56069002848D00120DFF88C14B2
:102350000860FEF769FE0500DFF884040068800766
:102360004FD4FEF761FE401B0328F5D303203CE168
:10237000E06800281FD00120DFF868140860FEF72D
:1023800053FE0500DFF850040068800706D4FEF70E
:102390004BFE401B0328F5D3032026E1DFF8380469
:1023A00000687FF0F8010840216950EAC100DFF8B9
:1023B00028140860C3E70020DFF828140860FEF73F
:1023C00033FE0500DFF8100400688007B7D5FEF77C
:1023D0002BFE401B0328F5D3032006E10020DFF885
:1023E000FC130860FEF720FE0500DFF8F403006828
:1023F000800706D5FEF718FE401B0328F5D30320FF
:10240000F3E02078400740F195800026DFF8D803FC
:102410000068C00011D400200090DFF8CC030068F1
:1024200050F08050DFF8C0130860DFF8BC0300688C
:1024300010F08050009000980126DFF8B00300688B
:10244000C00516D4DFF8A403006850F48070DFF8EC
:102450009C130860FEF7E8FD0500DFF890030068B4
:10246000C00506D4FEF7E0FD401B0328F5D303208A
:10247000BBE0A068012808D1DFF87403006850F0C1
:102480000100DFF86C13086024E0A068052810D173
:10249000DFF85C03006850F00400DFF854130860B4
:1024A000DFF84C03006850F00100DFF844130860C7
:1024B00010E0DFF83C03006840084000DFF830130C
:1024C0000860DFF82C0300687FF004010840DFF8A3
:1024D00020130860A068002810D0FEF7A5FD0500B5
:1024E000DFF80C030068800719D4FEF79DFD401B40
:1024F00041F289318842F3D3032076E0FEF794FD60
:102500000500DFF8EC020068800708D5FEF78CFDB7
:10251000401B41F289318842F3D3032065E0F6B2D3
:10252000012E07D1DFF8C002006830F08050DFF8DC
:10253000B8120860A069002856D0DFF8940200683D
:1025400010F00C0008284DD0A069022837D10020D7
:10255000DFF8A0120860FEF767FD0500DFF87802DB
:102560000068800106D5FEF75FFD401B0328F5D308
:1025700003203AE0E069216A0843616A50EA811069
:10258000A16A891EC903090C09040843E16A50EADB
:102590000160DFF8401208600120DFF8581208607F
:1025A000FEF742FD0500DFF83002006880011BD411
:1025B000FEF73AFD401B0328F5D3032015E0002069
:1025C000DFF830120860FEF72FFD0500DFF8080283
:1025D0000068800108D5FEF727FD401B0328F5D3CE
:1025E000032002E0012000E0002076BD70B5040069
:1025F0000D00002C01D10120A9E0DFF8FC010068EA
:1026000010F00F00A8420BD2DFF8EC010570DFF8E4
:10261000E801006810F00F00A84201D0012096E008
:102620002078800720D52078400707D5DFF8A00163
:10263000006850F4E050DFF8981108602078000737
:1026400007D5DFF88C01006850F46040DFF8801196
:102650000860DFF87C0100687FF0F0010840A168A5
:102660000843DFF86C1108602078C00739D560682E
:10267000012806D1DFF860010068800315D401202D
:1026800065E06068022802D06068032806D1DFF8A0
:1026900048010068800108D4012058E0DFF83801C3
:1026A0000068800701D4012051E049480068800893
:1026B00080006168084346490860FEF7B5FC0600E3
:1026C0004348006810F00C006168B0EB810F08D03F
:1026D000FEF7AAFC801B41F289318842F0D3032027
:1026E00035E04548006810F00F00854209D24248A5
:1026F00005704148006810F00F00A84201D0012089
:1027000025E02078400707D53148006830F4E050D4
:10271000E16808432E4908602078000708D52C4856
:10272000006830F46040216950EAC100284908601F
:1027300000F00EF83149264A1268C2F30312895C90
:10274000C8402F4908600F20FEF746FC002070BDEE
:1027500000B500220020002100201D48006810F074
:102760000C00002804D0042804D0082804D029E054
:10277000244828E0244826E01648006810F03F026C
:102780001448006840020AD512480068C0F3881057
:102790001D49A1FB0001002300F0ACFD09E00D483C
:1027A0000068C0F388101749A1FB0001002300F066
:1027B000A1FD08490968C1F30141491C4900B0FB6A
:1027C000F1F000E00F4800BD0D48006870470000C0
:1027D000083802400438024000380240800E474268
:1027E0007438024000004742403802400070004008
:1027F0007038024060004742003C02407C6E000896
:10280000D80100200024F40000127A0080B210F4F5
:102810007F4080B2B0F5807F15D0B0F5007F15D035
:10282000B0F5407F15D0B0F5806F15D0B0F5A06F32
:1028300015D0B0F5C06F15D0B0F5E06F15D0B0F57C
:10284000006F15D017E0DFF8E40615E0DFF8E006CA
:1028500012E0DFF8E0060FE0DFF8DC060CE0DFF85E
:10286000DC0609E0DFF8D80606E0DFF8D80603E06A
:10287000DFF8D40600E00020704780B200F0FF00CF
:10288000C0B200280ED0401E10D0401E12D0401EF4
:1028900014D0401E16D0401E042817D9401F05280A
:1028A00018D91BE006200870012018E007200870E6
:1028B000012014E008200870012010E009200870B1
:1028C00001200CE00A200870012008E017200870A1
:1028D000012004E028200870012000E0002070475B
:1028E00080B50100C9B2102919D2DFF86006C9B25B
:1028F0000C2202FB01F21044406800280FD0DFF8E0
:102900004C06C9B20C2202FB01F210448068DFF8C9
:102910003C26C9B20C23594311444968884701BD7C
:1029200080B500F05FFDDFF828060068C00706D517
:102930000120DFF81C1608600020FFF7D1FF00F02F
:102940005CFD01BD80B500F04DFDDFF804060068B8
:10295000800706D50220DFF8F81508600120FFF790
:10296000BFFF00F04AFD01BD80B500F03BFDDFF880
:10297000E0050068400706D50420DFF8D41508609C
:102980000220FFF7ADFF00F038FD01BD80B500F07B
:1029900029FDDFF8BC050068000706D50820DFF830
:1029A000B01508600320FFF79BFF00F026FD01BD76
:1029B00080B500F017FDDFF898050068C00606D561
:1029C0001020DFF88C1508600420FFF789FF00F065
:1029D00014FD01BD80B500F005FDDFF87405006849
:1029E000800606D52020DFF8681508600520FFF76F
:1029F00077FFDFF85C050068400606D54020DFF869
:102A0000501508600620FFF76BFFDFF844050068EB
:102A1000000606D58020DFF8381508600720FFF78C
:102A20005FFFDFF82C050068C00507D54FF4807004
:102A3000DFF81C1508600820FFF752FFDFF81005CB
:102A40000068800507D54FF40070DFF804150860B2
:102A50000920FFF745FF00F0D0FC01BD80B500F074
:102A6000C1FCDFF8EC040068400507D54FF4806036
:102A7000DFF8DC1408600A20FFF732FFDFF8D0042B
:102A80000068000507D54FF40060DFF8C414086043
:102A90000B20FFF725FFDFF8B8040068C00407D556
:102AA0004FF48050DFF8A81408600C20FFF718FFDF
:102AB000DFF89C040068800407D54FF40050DFF86D
:102AC000901408600D20FFF70BFFDFF88404006806
:102AD000400407D54FF48040DFF8741408600E20DE
:102AE000FFF7FEFEDFF868040068000407D54FF426
:102AF0000040DFF85C1408600F20FFF7F1FE00F0E3
:102B00007CFC01BD80B580B210F47F4080B2B0F58E
:102B1000807F12D0B0F5007F17D0B0F5407F16D07F
:102B2000B0F5806F15D0B0F5A06F14D0B0F5C06FC0
:102B300013D0B0F5E06F12D013E00020C9B2012924
:102B400010D1C0B200F0C9FC0FE00120F6E702206E
:102B5000F4E70320F2E70420F0E70520EEE7062083
:102B6000ECE702E0C0B200F0B6FD01BD38B50400EC
:102B70000D00200080B2FFF749FE00280BD0EDB217
:102B8000002D01D1002200E00122D2B20121A1409A
:102B900089B200F0A9FF31BD10B50400200080B259
:102BA000FFF734FE002801D100200AE00121A140F6
:102BB00089B200F090FF002801D1002000E0012040
:102BC000C0B210BD30B585B004000D00200080B249
:102BD000FFF71CFE002800F090800121A140009129
:102BE000EDB2002D48D0022D4DD053D3042D3CD052
:102BF0002DD3062D16D031D3082D1AD020D30A2D6F
:102C00004FD008D30C2D5AD052D30E2D65D05DD3A2
:102C10000F2D69D071E00321019100210291022161
:102C2000039167E0002101910021029102210391AB
:102C300060E000210191022102910221039159E0FB
:102C400000210191012102910221039152E0112101
:102C5000019100210291032103914BE01121019187
:102C6000022102910321039144E0112101910121EC
:102C70000291032103913DE0012101910021029184
:102C80000321039136E001210191022102910321E8
:102C900003912FE001210191012102910321039170
:102CA00028E002210191002102910321039121E0FA
:102CB0000221019101210291032103911AE00221D5
:102CC0000191022102910321039113E0122101914C
:102CD00000210291032103910CE0122101910121B5
:102CE00002910321039105E0122101910221029139
:102CF00003210391694600F0FFFD05B030BD70B5BA
:102D000086B005000E001400280080B2FFF77EFD9B
:102D1000002847D00121A9400091F6B20A2E09D01F
:102D200007D30C2E18D00ED30E2E27D01DD30F2E66
:102D30002DD037E00221019100210291032103915E
:102D4000E4B204942BE002210191012102910321BC
:102D50000391E4B2049422E0022101910221029144
:102D600003210391E4B2049419E01221019100219E
:102D7000029103210391E4B2049410E01221019125
:102D80000121029103210391E4B2049407E012218E
:102D900001910221029103210391E4B20494694656
:102DA00000F0AAFD06B070BD2DE9F04104000D0051
:102DB00016001F00200080B2FFF728FD002801D177
:102DC000002039E0A0465FFA88F8B8F1100F01D36F
:102DD000002031E000F0AEFE5C495FFA88F80C227A
:102DE00002FB08F2895A002903D000F0A7FE002058
:102DF00022E056495FFA88F80C2202FB08F28C5256
:102E0000EDB252495FFA88F80C2202FB08F2114435
:102E10004D804E495FFA88F80C2202FB08F21144FB
:102E20004E604A495FFA88F80C2202FB08F211440E
:102E30008F6000F083FE0120BDE8F08130B587B0DF
:102E400004000D00200080B2FFF7E0FC002801D153
:102E5000002069E06946200080B2FFF70EFD0028DF
:102E600001D1002060E0EDB2002D14D19DF90000E9
:102E7000FEF788F90120A040019003200290002075
:102E8000039002200490200080B2FFF7BFFC01A94C
:102E900000F032FD47E02500EDB2102D01D30020F7
:102EA00042E000F047FE2100284AEDB20C2303FB6C
:102EB00005F3D25A89B2914203D000F03FFE0020C0
:102EC00032E00121A1400191022104911F49EDB29C
:102ED0000C2202FB05F211444988002907D002297F
:102EE0000AD00DD21B4902910021039108E01A4932
:102EF00002910021039103E01849029100210391FE
:102F000000F01CFE200080B2FFF780FC01A900F059
:102F1000F3FC002201219DF90000FEF71DF99DF947
:102F20000000FEF72AF9012007B030BD0000024082
:102F30000004024000080240000C02400010024061
:102F40000014024000180240001C0240F8890020D2
:102F5000143C01400000211000001110000031104D
:102F600080B5002801D1022011E0D0F88C32002B6E
:102F700002D00023C0F88C32002901D0C0F888129A
:102F8000012180F874120270FFF71FF8002002BDC3
:102F900010B50400012084F874026168C9B22000F1
:102FA000D4F88C22526890472000FFF752F8200096
:102FB000FFF741F8002010BD0022002903D0C0F81F
:102FC0008C12002200E002221000C0B2704780B5CF
:102FD000FFF738F8002002BD0020704710B502242A
:102FE000D0F88C22002A07D0C9B2D0F88C221268FF
:102FF0009047002800D100242000C0B210BD80B549
:10300000C9B2D0F88C2252689047002002BD10B59A
:1030100004004FF42070204401F03EF90120C4F870
:103020006C02B4F88602C4F8700294F8800210F0C2
:103030001F00002803D0022811D008D317E04FF456
:10304000207004EB0001200000F0F2FD16E04FF4C8
:10305000207004EB0001200000F027FE0EE04FF48A
:10306000207004EB0001200000F054FE06E094F80C
:10307000800210F080012000FFF707F8002010BD4B
:1030800010B5040008001100C0B2002839D14FF477
:10309000A0702044D4F86C22032A26D10269C368A8
:1030A0009A4210D2C2680369D21AC260C268036928
:1030B0009A4201D2C26800E0026992B2200001F097
:1030C00062F9002010BDD4F88C020069002808D0F5
:1030D00094F87402032804D12000D4F88C120969F2
:1030E0008847200001F058F9EBE7D4F86C02052876
:1030F000E7D10020C4F86C0200212000FEF7C5FFD4
:10310000DFE7D4F88C12896900290BD094F8741287
:10311000032907D10100C9B22000D4F88C2292699A
:103120009047CEE70220CDE710B504001000C9B2E9
:10313000002968D114F11401D4F86C22022A4AD172
:103140000A69CB689A4210D2CA680B69D21ACA605F
:10315000CA6892B20100200001F0FAF800230022B0
:1031600000212000FEF7C9FF41E088680A69B0FB32
:10317000F2F302FB1300002817D188680A69904215
:1031800013D38868D4F8701288420ED2002200212E
:10319000200001F0DDF80020C4F8700200230022B6
:1031A00000212000FEF7A9FF21E0D4F88C02C068BE
:1031B000002808D094F87402032804D12000D4F821
:1031C0008C12C968884780212000FEF75EFF20002E
:1031D00001F0EDF80BE0D4F86C02042803D0D4F829
:1031E0006C02002803D180212000FEF74EFF94F8E6
:1031F0007802012805D12000FFF7EEFE002084F8B8
:103200007802002010BDD4F88C02406900280AD052
:1032100094F87402032806D1C9B22000D4F88C2295
:1032200052699047EDE70220ECE710B50400402317
:10323000002200212000FEF713FF0120C4F8440102
:103240004020C4F850014023002280212000FEF7D6
:1032500007FF0120A06140206062012084F8740211
:103260000020C4F86C02002060600020C4F87C02DA
:10327000D4F89002002806D06168C9B22000D4F8C2
:103280008C2252689047002010BD017400207047C6
:1032900090F8741280F87512042180F874120020DE
:1032A000704790F8751280F874120020704780B54E
:1032B00090F87412032908D1D0F88C12C96900293A
:1032C00003D0D0F88C12C9698847002002BD0020C5
:1032D0007047002070470020704780B5012180F8BA
:1032E00074124168C9B2D0F88C225268904700200D
:1032F00002BD00001B4213D1094236D12AB18446D7
:10330000B0FBF2F002FB10C2704701F05BB8FCD3D7
:103310000022002370470B000200002100207047AC
:10332000904271EB030CF6D370B5B1FA81F4B3FAA5
:1033300083F52C1BA340C4F1200532FA05F6334374
:10334000A2405FF00046E64002E05B085FEA32021E
:10335000841A71EB030524BF204629467641F4D335
:1033600002000B003000002170BD012ACFD970B5DA
:10337000140C20D0B1FA81F4B2FA82F5C4F1200421
:103380006419B4F12006D6D3B2405FF00044F44093
:10339000002502E052085FEA3303C61A71EB020E01
:1033A00024BF3046714664416D41F3D302000B00E7
:1033B0002000290070BD0C46B1FBF2F102FB114563
:1033C0002D0445EA1045B5FBF2F402FB145580B21A
:1033D00040EA0545B5FBF2F002FB105240EA04401A
:1033E00070BD000080B500F0A5FB09490978491CB3
:1033F000074A117000F0A2FB01BD80B500F09AFBF6
:1034000003490978491E024A117000F097FB01BD7B
:10341000638E002000B591B0012005905FF48030EC
:10342000069002200B905FF480000C9008200D9015
:10343000F0200E9006200F900520109005A8FEF7B2
:10344000D9FEC0B20028FCD10F20009002200190CC
:103450000020029000200490002003900121684683
:10346000FFF7C4F8C0B20028FCD10E200590002060
:1034700008900020079000200A9000200B9005A8DB
:10348000FEF7B8FEC0B20028FCD111B000BD10B5E7
:103490000120DFF85414087007210022DFF84C44A3
:1034A000200000F091FF002010BD80B50FF2154004
:1034B00000F0C8FF00200090DFF83404006850F0EE
:1034C0008050DFF82C140860DFF82404006810F046
:1034D000805000900098002002BD10B582B004001A
:1034E000E4B2002C0CD0022C54D02ED3042C00F0CB
:1034F000958074D3062C00F0CF80C0F0AE80E9E058
:1035000000F018FBDFF8E413E4B2095D002910D1E4
:1035100000210091DFF8DC13096851F00101DFF8A8
:10352000D4231160DFF8CC13096811F00101009178
:103530000099DFF8B813E4B2095D491CDFF8AC2349
:10354000E4B2115500F0FAFAC4E000F0F3FADFF843
:103550009C13E4B2095D002910D100210091DFF82D
:103560009413096851F00201DFF888231160DFF835
:103570008413096811F0020100910099DFF86C13BF
:10358000E4B2095D491CDFF86423E4B2115500F090
:10359000D5FA9FE000F0CEFADFF85013E4B2095DEF
:1035A000002910D100210091DFF84813096851F07B
:1035B0000401DFF840231160DFF83813096811F0C7
:1035C000040100910099DFF82413E4B2095D491C5D
:1035D000DFF81823E4B2115500F0B0FA7AE000F0F9
:1035E000A9FAC249E4B2095D00290DD10021009178
:1035F000C049096851F00801BE4A1160BD49096817
:1036000011F0080100910099B849E4B2095D491C24
:10361000B64AE4B2115500F091FA5BE000F08AFA84
:10362000B249E4B2095D00290DD100210091B149F0
:10363000096851F01001AF4A1160AE49096811F0F4
:10364000100100910099A949E4B2095D491CA74AFB
:10365000E4B2115500F072FA3CE000F06BFAA349B5
:10366000E4B2095D00290DD100210091A14909684A
:1036700051F020019F4A11609E49096811F0200114
:10368000009100999949E4B2095D491C974AE4B256
:10369000115500F053FA1DE000F04CFA9349E4B2E2
:1036A000095D00290DD1002100919249096851F06E
:1036B0004001904A11608F49096811F04001009162
:1036C00000998A49E4B2095D491C884AE4B211555F
:1036D00000F034FA13BD10B50400E4B2002C0BD096
:1036E000022C42D024D3042C79D05BD3062C00F0DA
:1036F000B080C0F09180C8E000F01CFA7B49E4B2D1
:10370000095D002906D07949E4B2095D491E774A6E
:10371000E4B211557549E4B2095D002905D1754936
:10372000096849084900734A116000F007FAACE0E3
:1037300000F000FA6D49E4B2095D002906D06B493A
:10374000E4B2095D491E694AE4B211556749E4B221
:10375000095D002906D1674909687FF0020211401E
:10376000644A116000F0EAF98FE000F0E3F95F4984
:10377000E4B2095D002906D05C49E4B2095D491E46
:103780005A4AE4B211555949E4B2095D002906D1FB
:10379000584909687FF004021140564A116000F050
:1037A000CDF972E000F0C6F95049E4B2095D002994
:1037B00006D04E49E4B2095D491E4C4AE4B21155A7
:1037C0004A49E4B2095D002906D14A4909687FF0F7
:1037D00008021140474A116000F0B0F955E000F0CE
:1037E000A9F94249E4B2095D002906D03F49E4B293
:1037F000095D491E3D4AE4B211553C49E4B2095DF8
:10380000002906D13B4909687FF010021140394A6E
:10381000116000F093F938E000F08CF93349E4B21C
:10382000095D002906D03149E4B2095D491E2F4ADD
:10383000E4B211552D49E4B2095D002906D12D49A4
:1038400009687FF0200211402A4A116000F076F9E1
:103850001BE000F06FF92549E4B2095D002906D0AC
:103860002249E4B2095D491E204AE4B211551F49BC
:10387000E4B2095D002906D11E4909687FF04002C3
:1038800011401C4A116000F059F910BD80B5C0B25A
:1038900000280DD100F04EF913490978002904D011
:1038A00011490978491E104A117000F047F908E0E3
:1038B00000F040F90C490978491C0B4A117000F0DE
:1038C0003DF901BD80B500F05FFF07480078002892
:1038D00007D100F08BFF0121012000F08DFFFFF7E1
:1038E00099FD00F05CFF01BD628E0020208E00205B
:1038F000403802403038024078B4002400230024CD
:10390000002239E00825EDB212F00306F6B2B60047
:10391000B5402C43DFF8E451960845F82640DFF81F
:10392000E04124689C434D68ED0300D51C43DFF85B
:10393000D0512C60DFF8CC4124689C434D68AD0326
:1039400000D51C43DFF8BC512C60DFF8BC41246873
:103950009C434D68ED0200D51C43DFF8AC512C6050
:10396000DFF8A84124689C434D68AD0200D51C4394
:10397000DFF898311C60521C102A80F0AA800123C5
:1039800013FA02F40B682340A342F4D14C68022CD2
:1039900002D04C68122C15D1D40800EB8404246AA0
:1039A0000F2512F00706F6B2B600B540AC430D691C
:1039B00012F00706F6B2B600B5402C43D50800EB6E
:1039C00085052C62046803251600F6B27600B54022
:1039D000AC430D7915F003051600F6B27600B5403C
:1039E0002C4304604C68012C08D04C68022C05D094
:1039F0004C68112C02D04C68122C17D18468032516
:103A00001600F6B27600B540AC43CD681600F6B2AB
:103A10007600B5402C438460446801259540AC4352
:103A20004D68C5F3001595402C434460C4680325D8
:103A30001600F6B27600B540AC438D681600F6B2BB
:103A40007600B5402C43C4604C68E40093D5002454
:103A500000942F4C246854F480442D4D2C602C4C41
:103A6000246814F480440094009C244C950854F875
:103A700025400F2512F00306F6B2B600B540AC4360
:103A8000244DA84201D100253DE7234DA84201D194
:103A9000012538E7214DA84201D1022533E7204D09
:103AA000A84201D103252EE71E4DA84201D10425CD
:103AB00029E71D4DA84201D1052524E71B4DA84249
:103AC00001D106251FE71A4DA8427FF41BAF072539
:103AD00019E771BC7047006989B2084201D0012022
:103AE00000E00020C0B27047D2B2002A02D089B2F2
:103AF000816102E089B209048161704708380140A0
:103B0000003C0140043C0140083C01400C3C0140A9
:103B10004438024000000240000402400008024015
:103B2000000C024000100240001402400018024045
:103B3000001C0240EFF3108072B6704780F31088CB
:103B40007047334A1368012B04D04FF00103136010
:103B5000304A1060304A1160304831490160704786
:103B6000EFF3108272B62A48016891B14FF000015C
:103B700001602848016829B1EFF3098121E9F00FBC
:103B800000680160244909680968B1E8F00F81F311
:103B9000098882F310884EF0040E70471E490860B1
:103BA0001C494FF00000086019494FF001000860FF
:103BB0001C481D49D0F8002041EA02010160174865
:103BC0001749016019480068006800BF80F3088841
:103BD00061B662B67047EFF308801EF0040F01D0A3
:103BE000EFF3098020E9F00FA0F10400C0F800E035
:103BF0001EF0040F02D080F3098801E080F30888EA
:103C000000B500F03AFE5DF804EB4EF0040E70478C
:103C1000448E00203C8E0020408E002004ED00E009
:103C20000000001020ED00E00000FF0008ED00E0C3
:103C300010B500240A7812F06002002A08D0202A69
:103C400001D0402A2CD1D0F88C229268904729E0EC
:103C50004A78002A18D0012A1CD0032A17D0052A36
:103C600009D0062A04D0082A0BD0092A06D014E06D
:103C700000F068F913E000F011FA10E000F03DFAEE
:103C80000DE000F0AFFA0AE000F0CBFA07E000F038
:103C9000E7FA04E000F0EEFA01E000F011FB01E0C9
:103CA00000F00EFB2000C0B210BD38B504000D00BE
:103CB0000020287810F06000002803D0202801D0D0
:103CC000402821D194F87402401E022817D8287980
:103CD00002280FDA29002000D4F88C22926890473D
:103CE000E98800290AD1C0B2002807D1200000F0DD
:103CF00053FB03E02900200000F0E2FA03E0290072
:103D0000200000F0DDFA03E02900200000F0D8FADE
:103D1000002032BD70B50500002488880A7812F0B2
:103D20006002002A0AD0202A02D0402A40F00481F2
:103D30002800D5F88C229268904700E10A7812F0AA
:103D40006002202A08D12800D5F88C22926890477A
:103D500004002000C0B2F4E04A78002A66D0012AAC
:103D600036D0032A40F0E48095F87422022A02D06B
:103D7000032A14D028E0C0B200280CD0C0B280289A
:103D800009D00100C9B22800FEF77FF98021280080
:103D9000FEF77BF902E0280000F092FA17E04A886B
:103DA000002A0DD1C0B200280AD0C0B2802807D0A6
:103DB000C988002904D10100C9B22800FEF765F9BD
:103DC000280000F0E9FA02E0280000F079FAB2E0F9
:103DD00095F87422022A02D0032A14D022E0C0B23D
:103DE00000280CD0C0B2802809D00100C9B2280038
:103DF000FEF74BF980212800FEF747F902E0280082
:103E000000F05EFA11E0498800290AD17F210842BA
:103E100004D00100C9B22800FEF73FF9280000F0E5
:103E2000BBFA02E0280000F04BFA84E095F8742217
:103E3000022A02D0032A28D076E0C0B2002806D099
:103E4000C0B2802803D0280000F03AFA6FE0C0B278
:103E5000010608D5C0B210F07F0014214843284461
:103E600010F1140609E0C0B210F07F00142148439D
:103E700028444FF4A07100EB0106002030600222BC
:103E80003100280000F054FA51E0C0B202060CD50F
:103E9000C0B210F00F0214235A432A449269002A38
:103EA00011D1280000F00CFA41E0C0B210F00F026E
:103EB00014235A432A44D2F84421002A03D128006B
:103EC00000F0FEF933E0C0B2010608D5C0B210F030
:103ED0007F0114225143294411F1140609E0C0B2B4
:103EE00010F07F011422514329444FF4A07201EBDA
:103EF0000206C0B2002802D0C0B2802802D1002041
:103F000030600BE00100C9B22800FEF7CEF80028AF
:103F100002D00120306001E0002030600222310038
:103F2000280000F005FA02E0280000F0C9F902E0DC
:103F3000280000F0C5F902E0280000F0C1F92000D7
:103F4000C0B270BD38B504000D00688880B2000AA8
:103F5000C0B2012808D002281FD0032830D006287C
:103F600069D0072875D084E06946207CD4F888227F
:103F700012689047BDF80010002900F08880E98899
:103F8000002900F08480BDF80010EA88914275D2C3
:103F9000BDF80010ADF8001073E0207C002807D1B8
:103FA0006846D4F88C12896A88470221417006E07D
:103FB0006846D4F88C12C96A884702214170D9E753
:103FC000A878002808D0022814D00CD304281FD0C9
:103FD00017D3052823D029E06946207CD4F888220D
:103FE00052689047C6E76946207CD4F888229268D8
:103FF0009047F7E76946207CD4F88822D26890473A
:10400000F0E76946207CD4F8882212699047E9E7F6
:104010006946207CD4F8882252699047E2E76946D5
:10402000207CD4F8882292699047DBE729002000A1
:1040300000F046F931E0207C002805D16846D4F82C
:104040008C12496B884795E72900200000F038F969
:1040500023E0207C002807D16846D4F88C12096B35
:1040600088470721417085E72900200000F028F9E2
:1040700013E02900200000F023F90EE0E988ADF8F4
:104080000010BDF800200100200000F051F9E88880
:10409000002802D1200000F07FF931BD38B50400BE
:1040A0008888002825D1C888002822D148888028FF
:1040B0001FD2887810F07F0594F87402032803D18A
:1040C000200000F0FDF817E084F876522900C9B20C
:1040D0002000FEF701F8200000F05EF9EDB2002D9F
:1040E00003D0022084F8740206E0012084F87402F0
:1040F00002E0200000F0E4F831BD38B504000D0006
:1041000068883749087036480078022804DB29009F
:10411000200000F0D5F861E094F87402022802D083
:1041200003281ED051E02E480078002815D02C48D6
:1041300000786060032084F8740229480178200028
:10414000FEF74CFF022804D12900200000F0B8F847
:1041500044E0200000F020F902E0200000F01CF90B
:104160003CE01F48007800280ED1022084F8740239
:104170001B48007860601A4801782000FEF73FFF76
:10418000200000F009F91FE01548007861688842B6
:1041900017D06168C9B22000FEF731FF10480078DF
:1041A00060600F4801782000FEF718FF022804D154
:1041B0002900200000F084F810E0200000F0ECF866
:1041C00002E0200000F0E8F808E02900200000F0FC
:1041D00077F8034801782000FEF711FF31BD000099
:1041E000668E002080B5CA88012A02D000F068F8E7
:1041F00016E090F87422521E012A02D9921E08D0AD
:104200000CE000218160012210F1080100F090F81B
:1042100006E00122011D00F08BF801E000F050F8EB
:1042200001BD80B590F87422521E022A15D8CA88A2
:10423000022A02D000F044F811E00121C160D0F858
:104240007C12002903D0C16851F00201C160022232
:1042500010F10C0100F06CF801E000F031F801BD44
:1042600080B54988012904D10121C0F87C1200F0F1
:1042700093F801BD80B590F87422521E022A08D826
:104280004988012904D10021C0F87C1200F084F88B
:1042900001E000F015F801BD0A7802704A7842701A
:1042A0008A78CB781B029A1842800A794B791B02D4
:1042B0009A1882808A79C97909028918C180704761
:1042C00010B5040080212000FDF7DFFE0021200052
:1042D000FDF7DBFE10BDF8B504000D001700002649
:1042E000002C1AD0200000F019F84000801C388003
:1042F0003878F6B2A855761C0320F6B2A855761C7D
:1043000008E02078F6B2A855641C761C0020F6B2AE
:10431000A855761C20780028F3D1F1BD002101E0DA
:10432000491C401C0278002AFAD10800C0B270472C
:1043300080B50223C0F86C3292B2C26192B20262BE
:1043400013009BB20A000021FDF7CEFE002002BD43
:1043500080B513009BB20A000021FDF7C5FE0020C6
:1043600002BD80B50323C0F86C3292B2C0F8482178
:1043700092B2C0F84C2113009BB20A000021FDF755
:10438000BCFE002002BD80B513009BB20A000021D4
:10439000FDF7B3FE002002BD80B50421C0F86C1209
:1043A000002300220021FDF79FFE002002BD80B502
:1043B0000521C0F86C12002300220021FDF79DFEAC
:1043C000002002BD7047000062F30F2262F31F421B
:1043D000401810F0030308D0C91A1FD3DB0748BFE9
:1043E00000F8012D28BF20F8022D130030B4144628
:1043F0001546103928BF20E93C00FAD8490728BFE4
:1044000020E90C0048BF40F8042D890028BF20F89F
:10441000022D48BF00F8012D30BC7047C91818BFE5
:1044200000F8012DCB0728BF00F8012D70470000D0
:1044300041680268516001684268116040604168EB
:104440000160704738B504007FF00205FFF772FB8A
:10445000002100E0491C042908D2434A52F82120D7
:10446000002AF7D1404A42F821400025FFF766FBB9
:10447000280032BD3D480168814201D0012000E0A2
:104480000020C0B2704738B504E000F088F9200081
:10449000FFF754FBFFF7EEFF002825D0FFF74AFB9C
:1044A0000400FFF7E7FF00281AD030480068B0F199
:1044B000140515F11400FFF7BBFF00F065F9A86FB4
:1044C000002802D02800A96F8847280000F03CFA95
:1044D0000128DAD100F063F92000FFF72FFB03E099
:1044E0002000FFF72BFBFFE731BD10B50DE01E48A4
:1044F00050F82400002803D01B4850F824008047BF
:10450000641C042CF3D3FFF7BEFF0024F9E730B599
:1045100087B0002424E02200154904A800F0BEFC66
:10452000202003901F2002904FF4C070019011488A
:104530004FF4C07101FB04F10844009000230E4ABF
:1045400004A90E48802505FB04F5284400F055FD1C
:104550000A48802101FB04F1084400F06CFD641C52
:10456000002CD8D007B030BD108E0020288E00203F
:10457000E46E000878860020EB440008388B0020A9
:1045800040604168016070474268116042684A605B
:104590004160086070474168026851600168426884
:1045A000116040604168016070470168814201D13B
:1045B000012000E00020C0B2704710B5040084481C
:1045C000006800F073FC411E824850F83100143836
:1045D000216010BD10B500207F490880002405E04F
:1045E0007C4800EBC400FFF7CBFF641C202CF7DBFA
:1045F0000020774908607948FFF7C2FF10BD10B569
:1046000082B06846FFF7D9FF0400754804602000B7
:1046100000F09EF8032084F8340014F11C00FFF72A
:10462000BDFA13BDF8B5FFF785FA04006A48B0F982
:10463000000000285BD166480068002857D000259C
:104640006846FFF7BAFF06006548006890F8340036
:1046500010F00F0003280AD16148006890F8350077
:104660000099884202D25E48066800E001255C4855
:10467000006886422BD000985A490870584807684D
:1046800057480660002D02D0380000F034F83000A2
:1046900000F05EF896F8340010F0F00050F00300DF
:1046A00086F8340050480078002809D116F11C0122
:1046B00017F11C00FFF745FA2000FFF73FFA19E059
:1046C00016F11C0117F11C00FFF73BFA0FE04448FC
:1046D000006800F03DF84248006890F8340010F09F
:1046E000F00050F003003E49096881F834002000D2
:1046F000FFF724FAF1BD38B50500FFF71BFA0400F7
:1047000037480068854208D195F8340010F0F00071
:1047100050F0030085F8340016E095F8340010F0EE
:10472000F00050F0010085F8340015F1140129481B
:1047300095F8352000EBC200FFF726FF24480068FB
:10474000A96B0843224908602000FFF7F7F931BD43
:1047500038B50500FFF7EEF9040015F11400FFF776
:104760001AFF1C4895F8351000EBC100FFF71DFF3C
:10477000002805D016480068A96B884314490860D2
:104780002000FFF7DBF931BD80B5FFF7D3F91249FF
:104790000988491C104A1180FFF7D0F901BD80B586
:1047A000FFF7C8F90C490988491E0B4A11800A49CC
:1047B000B1F90010012907DA0021074A1180FFF73B
:1047C000BDF9FFF72FFF01E0FFF7B8F901BD0000C9
:1047D0004C8E0020F8870020608E0020288E00205C
:1047E000508E0020648E0020638E0020012001493D
:1047F0000860704724000E420E4A12689208920028
:1048000010430C4A10600C48006850F004000A4A3B
:104810001060C9B2012901D130BF02E040BF20BF02
:1048200020BF054800687FF0040108400249086085
:10483000704700000070004010ED00E070B4121DE1
:10484000D208D200403A1400002503E0134E44F889
:1048500025606D1C102DF9D32162002161620021B9
:10486000A1620021E162002121636363A0635FF024
:104870008070E063100070BC704780B510F12401B7
:10488000001D07480068002806D008000449096890
:104890008847002800D101BDFEE70000EFBEADDE75
:1048A000488E00200268516002680A60016048601A
:1048B0007047416802685160016842681160406059
:1048C000416801607047002100E0491C06290ADAAE
:1048D000064A0B01D25C0300DBB29A42F5D10348D1
:1048E0000901084400E0002070470000000000209B
:1048F000F8B504000D0016002800C0B2FFF7E3FF72
:10490000070055F08000207208223100200000F0DE
:104910004DF8FFF70FF9050014F10C01381DFFF7F2
:10492000C1FF2800FFF70AF9F1BD38B504000020E7
:104930002072FFF7FFF8050014F10C00FFF7B9FF34
:104940002800FFF7FBF831BD007A000601D50120F1
:1049500000E000207047000010B4030001F0FF04E5
:10496000042A1DD310F00301002919D1030054EAD1
:10497000042151EA014108E019601B1D19601B1D4B
:1049800019601B1D19601B1D103A102AF4D2042A4D
:1049900003D319601B1D121FF9E701E01C705B1C9B
:1049A00011004A1E0029F9D110BC704710B4002A2A
:1049B00012D003000C78491C1C705B1CE4B2002C64
:1049C00007D1521E002A03D0002119705B1CF8E7A2
:1049D00002E0521E002AEDD110BC7047010000E039
:1049E000491C0A78002AFBD1081A704770470A2927
:1049F0000BD101680A22B1FBF2F302FB131102682A
:104A00000A23B2FBF3F2026005E0017811F00F0116
:104A100002681209026008007047002107E002687E
:104A2000531C03600A23127803FB0121303902680A
:104A30001278303A0A2AF2D3080070472DE9FC4F69
:104A400087B004000D00139E0196129FDDF8509070
:104A50005FEA496002D5DFF89C8401E0DFF89884C2
:104A60005FEAC96003D57FF0010010EA09095FEA37
:104A7000C97003D530208DF8000002E020208DF8A9
:104A800000005FF0000A5FEA897013D507980028DC
:104A900005D55FF02D0A0798404207900AE05FEACB
:104AA000497002D55FF02B0A04E05FEA097001D576
:104AB0005FF0200A5FF0000B0798002811D130202A
:104AC00002A901F80B001BF1010B0DE0089907A8E2
:104AD000FFF78DFF18F8000002A901F80B001BF189
:104AE000010B07980028F1D15E4500DA5E46BF1B36
:104AF00019F0110F11D15FFA8AFABAF1000F08D03C
:104B0000012F06DB7F1E04E0A54201D32020207088
:104B1000641C3800471E0128F6DA5FFA8AFABAF1F7
:104B2000000F05D0A54202D384F800A07F1E641CAC
:104B30005FEAC9600AD405E0A54202D39DF80000EF
:104B40002070641C3800471E0128F5DA3000461E2C
:104B500083450CDAA54201D330202070641CF5E7B0
:104B6000A54203D302A810F80B002070641C58461D
:104B7000B0F1010B012802DB01980028F0D13800C8
:104B8000471E012805DBA54201D320202070641CAC
:104B9000F5E7200009B0BDE8F08F2DE9F44F84B0AF
:104BA00005001E002F0005EB0100B0F10108A8452B
:104BB00018D25FF0FF38B8EB050113E03268361DFC
:104BC0005FEA89705FFA89F9CDF808900194CDF811
:104BD00000A0DBB241463800FFF730FF0700049821
:104BE000401C049004980078002800F04381049849
:104BF0000078252806D0B84502D30498007838708C
:104C00007F1CECE75FF0000901E059F010090498FF
:104C1000401C0490049800782D28F6D00498007861
:104C20002B2802D159F00409F1E7049800782028D4
:104C300002D159F00809EAE704980078232802D144
:104C400059F02009E3E704980078302802D159F0A0
:104C50000109DCE75FF0FF3A0498007830380A2851
:104C600004D204A8FFF7D9FE824610E00498007829
:104C70002A280CD10498401C0490D6F800A0361DB8
:104C8000BAF1000F03D5DAF1000A59F010095FF00C
:104C9000FF34049800782E2818D10498401C049002
:104CA0000498007830380A2804D204A8FFF7B5FE2B
:104CB000040008E0049800782A2804D10498401CD5
:104CC00004903468361D002C00D50024002004997F
:104CD0000978682903D0049909786C2904D10498CB
:104CE00000780499491C04910A230499097825291C
:104CF00000F08780582900F09580632913D064293B
:104D000000F09480692900F091806F2900F07F8085
:104D100070295FD0732926D0752900F08980782901
:104D200000F0828085E05FEAC9600AD404E0B845FB
:104D300001D3202038707F1CBAF1010ABAF1010FAB
:104D4000F5DA3068361DB84500D338707F1C04E0B2
:104D5000B84501D3202038707F1CBAF1010ABAF19E
:104D6000010FF5DA3BE7D6F800B0361DBBF1000FB6
:104D700001D1DFF888B15846FFF730FE012C02DB85
:104D8000844200DA20005FEAC9610AD404E0B84531
:104D900001D3202139707F1C5146B1F1010A8842AC
:104DA000F5DB002108E0B84502D39BF800203A70FB
:104DB0007F1C1BF1010B491C8142F4DB5146B1F110
:104DC000010A884205DAB84501D3202139707F1CD9
:104DD000F4E704E71AF1010F03D15FF0080A59F074
:104DE00001093268361D5FFA89F9CDF808900194FF
:104DF000CDF800A0102341463800FFF71FFE070042
:104E0000EDE6B84501D3252038707F1CE7E608237E
:104E1000C0B26C2821D13268361D5FEA89707FF5F7
:104E2000D1AECFE659F040091023F1E759F002095D
:104E3000EEE7B84501D3252038707F1C0498007830
:104E4000002806D0B84502D30498007838707F1C3B
:104E500002E00498401E0490C1E6C0B268287FF4C6
:104E6000ADAE3268361D92B25FEA89707FF5AAAEA8
:104E700012B2A7E6B84502D30020387002E0002045
:104E800088F80000781B05B0BDE8F08F80B51300EE
:104E90000A005FF0FF31FFF780FE02BD0CB480B561
:104EA00002AAFFF7F3FF02BC5DF80CFB002801D15A
:104EB00000201DE0010605D0114900F0FF00085C4C
:104EC000401C15E010F47F4F05D00D49C0F30720BA
:104ED000085C09300CE010F47F0F05D00849C0F3DE
:104EE0000740085C113003E00549000E085C1930EA
:104EF00070470000546E0008406E0008EC6E000819
:104F00008C6A000840604168016070470268516027
:104F100002680A6001604860704741680268516039
:104F2000016842681160406041680160704738B5AF
:104F300000F07EF80400FEF7FDFD05002000FFF7FD
:104F400007FC042084F8340014F14C0000F063F9ED
:104F50002000FFF7F9FC012806D1A06F002803D13B
:104F60002000FFF7E2FC04E014F114013D48FFF7D4
:104F7000CDFF2800FEF7E2FDFFF754FB31BD7CB505
:104F8000040015001E0014F11400FFF7BBFF25629A
:104F900066620698A0620798E062E26A2321A06A2E
:104FA000FFF7DAFC304BA06AE16A0844021F616A2D
:104FB000206AFFF743FCE061089884F8360084F823
:104FC00035000020A06309986064A064002020637D
:104FD000002084F834000020A0670020E067002053
:104FE00001900020009023000FF26112210014F1C3
:104FF0004C0000F0FDF8002076BDF0B585B004004F
:105000000D0016001F002A0001212000FFF770FC90
:105010000D9803900C9802900B9801900A980090BC
:105020003B00320029002000FFF7A9FF05B0F0BDCA
:105030000E480068704780B590F8361080F835103B
:10504000012190F9352091408163022180F83410CC
:1050500000F05CF8FFF7ECFF002801D0FFF7E2FA60
:10506000002002BD288E00202F4F0008508E002007
:1050700080B5FFF7D7FA002002BD31B5FFF7D8FFA2
:105080000500FEF757FD0400280000F01BF86A46F3
:10509000002115F14C0000F05CF915F14C0000F016
:1050A000CAF82000FEF74AFDFFF7BCFA286B10F1A2
:1050B000020F01D100202863002032BD80B5FFF728
:1050C000DCFF02BD38B5040094F8340010F00F0086
:1050D000012804D0032802D05FF0FF3015E0FEF76E
:1050E00029FD05002000FFF733FB94F8340010F091
:1050F000F00050F0020084F8340014F14C0000F08D
:1051000011F92800FEF71AFD002032BD38B5040061
:1051100094F8340010F00F00022802D05FF0FF3046
:1051200011E0FEF707FD050014F11400FFF7F5FE8E
:1051300014F14C0000F0F6F82800FEF7FFFC200008
:10514000FFF7D9FA002032BD0000000010B50400BE
:105150007FF00100206314F11400FFF7DEFE200051
:10516000FFF7C9FAFFF75EFA10BD00004060416822
:10517000016070470268516002680A60016048601F
:105180007047416802685160016842681160406080
:105190004168016070470168814201D1012000E04F
:1051A0000020C0B2704738B5040004986072607A7D
:1051B00010F0FE006072E16122620020A062636272
:1051C000002505E004EBC5001430FFF7CFFF6D1C90
:1051D000012DF7DB31BD38B50400002505E004EBF7
:1051E000C5001430FFF7CDFF6D1C012DF7DB31BD7D
:1051F00070B582B0040015001E000A000A212000CC
:10520000FFF776FB07980090069B320029002000EC
:10521000FFF7C9FF73BD38B50400FEF78BFC05002E
:105220002000FFF7D8FF2800FEF788FC2000FFF7DA
:105230007CFB002032BDF8B50400FEF77BFC0500C6
:105240002000FFF7C8FF607A10F0FE0060722800AF
:10525000FEF774FC00F0DEF8616A0818A062FEF741
:1052600069FC050068480090002611E0896AA26A7E
:10527000891A7FF0004291421AD2002E07D0694667
:1052800051F8261008316A4602EB86025160761CFE
:10529000002E14D05D480068401C5C4908605B48E3
:1052A000076814F114010098FFF764FF02262BE051
:1052B000694651F8261009686A4642F82610694680
:1052C00051F8261000EBC60252689142D5D06946CB
:1052D00051F826100968142202EBC602524211440A
:1052E0008A6AA36AD21A002AC0D1E1E7704204EBAD
:1052F000C00010F11C016846724200EB8200406859
:10530000FFF738FFBF08761C022E02D217F0030FFA
:10531000ECD0607A50F0010060722800FEF70EFCBD
:105320000020F2BD38B50400607AC00702D45FF0F7
:10533000FF300DE0FEF7FEFB05002000FFF74BFFFE
:105340002800FEF7FBFB607A10F0FE006072002080
:1053500032BD002908D0022909D002D303290BD07D
:105360000EE0406A10600BE01168416208E0417A8B
:1053700011F0FD01417203E0417A51F002014172E6
:105380000020704770B500F045F80600FEF7D2FB2C
:10539000040006E0687A10F0FE0068722800FFF74B
:1053A0004AFF1948FFF7F7FE00281CD1164800688D
:1053B000B0F11405A86A301A7FF00041884212D279
:1053C0002800FFF708FF286AE969884700F022F8FB
:1053D0000600687A10F003000328DBD0687A10F02A
:1053E000FE006872DDE72000FEF7A8FB70BD10B577
:1053F000002405E0044800EBC400FFF7B7FE641C7E
:10540000002CF7D010BD0000308E0020588E0020F8
:10541000704700000B480068704780B50948006875
:10542000401C08490860FFF703FE816C491E816437
:10543000816C002903D1416C8164FFF719FEFFF7ED
:10544000A1FF01BD388E002070B504000025207C2E
:10545000002813D14FF40073022281212000FCF7B1
:10546000FFFD0120E0624FF40073022201212000C1
:10547000FCF7F6FD0120C4F8580110E04023022299
:1054800081212000FCF7ECFD0120E0624023022294
:1054900001212000FCF7E4FD0120C4F85801082395
:1054A000032282212000FCF7DBFD012020644FF461
:1054B0000770FCF732FEC4F89002D4F8900200287E
:1054C00001D101251EE0D4F89062D4F8940200685E
:1054D00080470020C6F814020020C6F81802207C7D
:1054E000002808D14FF40073D6F8042201212000CF
:1054F000FCF703FE06E04023D6F804220121200039
:10550000FCF7FBFD2800C0B270BD38B504000025D3
:1055100081212000FCF7B1FD0020E0620121200084
:10552000FCF7ABFD0020C4F8580182212000FCF7F5
:10553000A4FD00202064D4F8900200280AD0D4F8FA
:10554000940240688047D4F89002FCF7F3FD0020F5
:10555000C4F890022800C0B232BDF8B504000D00B6
:10556000D4F8906200208DF802000020ADF8000011
:105570000027287810F06000002828D020285FD16C
:10558000E88800281BD0287800060CD5EA8831006E
:105590006878D4F894329B689847EA8831002000F4
:1055A000FEF7C6FE12E0687886F80002E88886F802
:1055B0000102EA8831002000FEF7D3FE06E0002257
:1055C00029006878D4F894329B6898473DE0687861
:1055D000002804D00A2812D00B2821D02AE094F801
:1055E0007402032805D1022269462000FEF7A0FEBE
:1055F00004E029002000FEF763FE02271FE094F874
:105600007402032806D101220DF102012000FEF7E9
:105610008FFE04E029002000FEF752FE02270EE074
:1056200094F87402032804D029002000FEF748FEF5
:10563000022704E029002000FEF742FE022704E0D2
:1056400029002000FEF73CFE02273800C0B2F2BD60
:1056500038B5D0F89022D0F89832D0F89042002C8B
:105660002BD0C9B2142404FB01F40444E469002CD7
:105670001ED0C9B2142404FB01F40444E469C9B285
:105680001C2505FB01F52B445B6CB4FBF3F503FB18
:105690001543002B0CD10022C9B2142303FB01F3E4
:1056A0000344DA6100230022C9B2FCF71DFD02E0C9
:1056B0000020C2F81402002000E0022032BD38B5FC
:1056C0000400D4F89052C9B22000FCF71FFDC5F8C1
:1056D0000C02D4F8900200280BD04FF4037005EBB5
:1056E0000001D5F80402D4F89422D2689047002033
:1056F00000E0022032BD10B50300D3F89042D3F889
:105700009402002810D094F80002FF280CD094F8DE
:10571000012292B2210094F80002D3F894329B68DF
:105720009847FF2084F80002002010BD432101802B
:105730000648704743210180054870474321018096
:10574000044870470A21018003487047A4000020E4
:1057500060000020E8000020C00100200222002993
:1057600002D0C0F8941200221000C0B27047D0F8E6
:105770009002C0F8081292B2C0F8102200207047C0
:10578000D0F89002C0F804120020704780B5D0F81D
:105790009012D0F89022002A12D0027C002A07D161
:1057A0004FF40073D1F804220121FCF7A6FC05E0B8
:1057B0004023D1F804220121FCF79FFC002000E0E7
:1057C000022002BD80B50022DFF8C412DFF8C40257
:1057D000FFF7CDFFDFF8B812DFF8B802FFF7D0FF10
:1057E000002002BD00207047C0B2002810D0012860
:1057F0000FD002280ED003280DD004280CD020286A
:105800000BD021281FD0222836D0232835D035E0D0
:1058100034E033E032E031E030E008784A7850EAB2
:1058200002208A7850EA0240CA7850EA02609A4A16
:1058300010600879984A10714879974A50718879B0
:10584000954988711AE09448006808709248006889
:10585000000A487090480068000C88708E48006804
:10586000000EC8708C48007908718B4840794871E7
:1058700089488079887101E000E0FFE700207047E7
:1058800070B504000D00FEF755F984490E68FEF767
:1058900055F93000002803D0296889B22000B047AC
:1058A0007C48FFF773FF002070BD80B5002000909A
:1058B0005FF0FF3305220121794800F0BDF900288F
:1058C00000D0FEE701BD80B50121754800F065F903
:1058D000002800D0FEE701BD80B5C0B2012810D17C
:1058E000002270496B48FDF73BFB6F496948FDF7A3
:1058F00063FB6E496748FFF731FF6648FDF767FBBA
:1059000002E06448FDF744FB01BD80B50221644814
:1059100000F043F901BD10B582B0002412E000246C
:10592000FFF7D1FF002000900023062202215C48EF
:1059300000F082F9002140F20A20FDF7E3F8002090
:10594000FDF7A4FF002000905FF0FF330522022145
:10595000534800F071F9002800D0FEE70120FDF760
:1059600095FF012140F20A20FDF7CCF802E0002467
:10597000FFF7A9FF0520FFF7A1FBFFF796FF40F215
:105980000A20FDF709F901280ED1494800780028BE
:10599000EDD13234C82CEBD300240120FFF79CFF5B
:1059A000012043490870E3E7414800780128B6D157
:1059B0003234C82C11D300240020FFF78DFF0020C3
:1059C0003B490870FFF77FFF00200090002306226C
:1059D0000221334800F030F9ACE7FFF774FFC9E764
:1059E00080B5012233492E4800F0C7F8002800D0C6
:1059F000FEE701212A4800F0D0F8002800D0FEE799
:105A000000232D4A002140F20A20FDF7CDF90121A3
:105A100040F20A20FDF776F8012140F20A20FDF756
:105A20000DFA40F20A20FDF7B7F8012803D1022150
:105A30001B4800F0B2F8002140F20A20FDF762F89E
:105A4000002002BD00B585B0022003900520029021
:105A50004FF400700190194800900023184A15492E
:105A60001848FFF7CAFA002800D0FEE71548FFF7EC
:105A7000E2FA002800D0FEE7002005B000BD80B5A6
:105A8000FDF7B0FC1048FBF7A8FCFDF7B6FC01BD24
:105A9000388C00203C7E0020CC0100205C8E002051
:105AA000F08D0020640100202C010020B0010020B6
:105AB000658E0020F46E00080B590008F482002067
:105AC00017590008B88B0020347A002040604168E4
:105AD000016070474268116042684A604160086036
